{
  "contractName": "ResearchProjectFactory",
  "abi": [
    {
      "anonymous": false,
      "inputs": [
        {
          "indexed": true,
          "internalType": "address",
          "name": "projectContractAddress",
          "type": "address"
        },
        {
          "indexed": false,
          "internalType": "uint256",
          "name": "projectId",
          "type": "uint256"
        },
        {
          "indexed": false,
          "internalType": "string",
          "name": "title",
          "type": "string"
        },
        {
          "indexed": false,
          "internalType": "address",
          "name": "manager",
          "type": "address"
        },
        {
          "indexed": false,
          "internalType": "bytes32",
          "name": "projectHash",
          "type": "bytes32"
        }
      ],
      "name": "ProjectCreated",
      "type": "event"
    },
    {
      "inputs": [],
      "name": "projectCount",
      "outputs": [
        {
          "internalType": "uint256",
          "name": "",
          "type": "uint256"
        }
      ],
      "stateMutability": "view",
      "type": "function"
    },
    {
      "inputs": [
        {
          "internalType": "uint256",
          "name": "",
          "type": "uint256"
        }
      ],
      "name": "projectDetails",
      "outputs": [
        {
          "internalType": "string",
          "name": "title",
          "type": "string"
        },
        {
          "internalType": "string",
          "name": "description",
          "type": "string"
        },
        {
          "internalType": "uint256",
          "name": "totalFunding",
          "type": "uint256"
        },
        {
          "internalType": "address",
          "name": "manager",
          "type": "address"
        },
        {
          "internalType": "bytes32",
          "name": "projectHash",
          "type": "bytes32"
        },
        {
          "internalType": "address",
          "name": "projectAddress",
          "type": "address"
        },
        {
          "internalType": "uint256",
          "name": "projectId",
          "type": "uint256"
        }
      ],
      "stateMutability": "view",
      "type": "function"
    },
    {
      "inputs": [
        {
          "internalType": "uint256",
          "name": "",
          "type": "uint256"
        }
      ],
      "name": "projects",
      "outputs": [
        {
          "internalType": "address",
          "name": "",
          "type": "address"
        }
      ],
      "stateMutability": "view",
      "type": "function"
    },
    {
      "inputs": [
        {
          "internalType": "address",
          "name": "",
          "type": "address"
        },
        {
          "internalType": "uint256",
          "name": "",
          "type": "uint256"
        }
      ],
      "name": "projectsByCreator",
      "outputs": [
        {
          "internalType": "uint256",
          "name": "",
          "type": "uint256"
        }
      ],
      "stateMutability": "view",
      "type": "function"
    },
    {
      "inputs": [
        {
          "internalType": "string",
          "name": "_title",
          "type": "string"
        },
        {
          "internalType": "string",
          "name": "_description",
          "type": "string"
        },
        {
          "internalType": "uint256",
          "name": "_totalFunding",
          "type": "uint256"
        }
      ],
      "name": "createResearchProject",
      "outputs": [],
      "stateMutability": "nonpayable",
      "type": "function"
    },
    {
      "inputs": [
        {
          "internalType": "string",
          "name": "_title",
          "type": "string"
        },
        {
          "internalType": "uint256",
          "name": "_totalFunding",
          "type": "uint256"
        }
      ],
      "name": "generateProjectHash",
      "outputs": [
        {
          "internalType": "bytes32",
          "name": "",
          "type": "bytes32"
        }
      ],
      "stateMutability": "pure",
      "type": "function"
    },
    {
      "inputs": [
        {
          "internalType": "string",
          "name": "_title",
          "type": "string"
        },
        {
          "internalType": "uint256",
          "name": "_totalFunding",
          "type": "uint256"
        }
      ],
      "name": "generateSalt",
      "outputs": [
        {
          "internalType": "bytes32",
          "name": "",
          "type": "bytes32"
        }
      ],
      "stateMutability": "view",
      "type": "function"
    },
    {
      "inputs": [
        {
          "internalType": "string",
          "name": "_title",
          "type": "string"
        },
        {
          "internalType": "address",
          "name": "_manager",
          "type": "address"
        },
        {
          "internalType": "uint256",
          "name": "_totalFunding",
          "type": "uint256"
        },
        {
          "internalType": "bytes32",
          "name": "_projectHash",
          "type": "bytes32"
        },
        {
          "internalType": "bytes32",
          "name": "salt",
          "type": "bytes32"
        }
      ],
      "name": "getAddress",
      "outputs": [
        {
          "internalType": "address",
          "name": "",
          "type": "address"
        }
      ],
      "stateMutability": "view",
      "type": "function"
    },
    {
      "inputs": [],
      "name": "getAllProjects",
      "outputs": [
        {
          "components": [
            {
              "internalType": "string",
              "name": "title",
              "type": "string"
            },
            {
              "internalType": "string",
              "name": "description",
              "type": "string"
            },
            {
              "internalType": "uint256",
              "name": "totalFunding",
              "type": "uint256"
            },
            {
              "internalType": "address",
              "name": "manager",
              "type": "address"
            },
            {
              "internalType": "bytes32",
              "name": "projectHash",
              "type": "bytes32"
            },
            {
              "internalType": "address",
              "name": "projectAddress",
              "type": "address"
            },
            {
              "internalType": "uint256",
              "name": "projectId",
              "type": "uint256"
            },
            {
              "components": [
                {
                  "internalType": "string",
                  "name": "title",
                  "type": "string"
                },
                {
                  "internalType": "string",
                  "name": "description",
                  "type": "string"
                },
                {
                  "internalType": "uint256",
                  "name": "deadline",
                  "type": "uint256"
                },
                {
                  "internalType": "uint256",
                  "name": "reward",
                  "type": "uint256"
                },
                {
                  "internalType": "bool",
                  "name": "isCompleted",
                  "type": "bool"
                },
                {
                  "internalType": "address",
                  "name": "completedBy",
                  "type": "address"
                },
                {
                  "internalType": "uint256",
                  "name": "timestamp",
                  "type": "uint256"
                },
                {
                  "internalType": "bytes32",
                  "name": "contentHash",
                  "type": "bytes32"
                }
              ],
              "internalType": "struct ResearchProjectFactory.Milestone[]",
              "name": "milestones",
              "type": "tuple[]"
            }
          ],
          "internalType": "struct ResearchProjectFactory.Project[]",
          "name": "",
          "type": "tuple[]"
        },
        {
          "components": [
            {
              "internalType": "string",
              "name": "title",
              "type": "string"
            },
            {
              "internalType": "string",
              "name": "description",
              "type": "string"
            },
            {
              "internalType": "uint256",
              "name": "deadline",
              "type": "uint256"
            },
            {
              "internalType": "uint256",
              "name": "reward",
              "type": "uint256"
            },
            {
              "internalType": "bool",
              "name": "isCompleted",
              "type": "bool"
            },
            {
              "internalType": "address",
              "name": "completedBy",
              "type": "address"
            },
            {
              "internalType": "uint256",
              "name": "timestamp",
              "type": "uint256"
            },
            {
              "internalType": "bytes32",
              "name": "contentHash",
              "type": "bytes32"
            }
          ],
          "internalType": "struct ResearchProjectFactory.Milestone[][]",
          "name": "",
          "type": "tuple[][]"
        }
      ],
      "stateMutability": "view",
      "type": "function"
    },
    {
      "inputs": [
        {
          "internalType": "uint256",
          "name": "projectId",
          "type": "uint256"
        }
      ],
      "name": "getProjectDetails",
      "outputs": [
        {
          "components": [
            {
              "internalType": "string",
              "name": "title",
              "type": "string"
            },
            {
              "internalType": "string",
              "name": "description",
              "type": "string"
            },
            {
              "internalType": "uint256",
              "name": "totalFunding",
              "type": "uint256"
            },
            {
              "internalType": "address",
              "name": "manager",
              "type": "address"
            },
            {
              "internalType": "bytes32",
              "name": "projectHash",
              "type": "bytes32"
            },
            {
              "internalType": "address",
              "name": "projectAddress",
              "type": "address"
            },
            {
              "internalType": "uint256",
              "name": "projectId",
              "type": "uint256"
            },
            {
              "components": [
                {
                  "internalType": "string",
                  "name": "title",
                  "type": "string"
                },
                {
                  "internalType": "string",
                  "name": "description",
                  "type": "string"
                },
                {
                  "internalType": "uint256",
                  "name": "deadline",
                  "type": "uint256"
                },
                {
                  "internalType": "uint256",
                  "name": "reward",
                  "type": "uint256"
                },
                {
                  "internalType": "bool",
                  "name": "isCompleted",
                  "type": "bool"
                },
                {
                  "internalType": "address",
                  "name": "completedBy",
                  "type": "address"
                },
                {
                  "internalType": "uint256",
                  "name": "timestamp",
                  "type": "uint256"
                },
                {
                  "internalType": "bytes32",
                  "name": "contentHash",
                  "type": "bytes32"
                }
              ],
              "internalType": "struct ResearchProjectFactory.Milestone[]",
              "name": "milestones",
              "type": "tuple[]"
            }
          ],
          "internalType": "struct ResearchProjectFactory.Project",
          "name": "",
          "type": "tuple"
        },
        {
          "components": [
            {
              "internalType": "string",
              "name": "title",
              "type": "string"
            },
            {
              "internalType": "string",
              "name": "description",
              "type": "string"
            },
            {
              "internalType": "uint256",
              "name": "deadline",
              "type": "uint256"
            },
            {
              "internalType": "uint256",
              "name": "reward",
              "type": "uint256"
            },
            {
              "internalType": "bool",
              "name": "isCompleted",
              "type": "bool"
            },
            {
              "internalType": "address",
              "name": "completedBy",
              "type": "address"
            },
            {
              "internalType": "uint256",
              "name": "timestamp",
              "type": "uint256"
            },
            {
              "internalType": "bytes32",
              "name": "contentHash",
              "type": "bytes32"
            }
          ],
          "internalType": "struct ResearchProjectFactory.Milestone[]",
          "name": "",
          "type": "tuple[]"
        }
      ],
      "stateMutability": "view",
      "type": "function"
    },
    {
      "inputs": [
        {
          "internalType": "address",
          "name": "creator",
          "type": "address"
        }
      ],
      "name": "getProjectsByCreator",
      "outputs": [
        {
          "components": [
            {
              "internalType": "string",
              "name": "title",
              "type": "string"
            },
            {
              "internalType": "string",
              "name": "description",
              "type": "string"
            },
            {
              "internalType": "uint256",
              "name": "totalFunding",
              "type": "uint256"
            },
            {
              "internalType": "address",
              "name": "manager",
              "type": "address"
            },
            {
              "internalType": "bytes32",
              "name": "projectHash",
              "type": "bytes32"
            },
            {
              "internalType": "address",
              "name": "projectAddress",
              "type": "address"
            },
            {
              "internalType": "uint256",
              "name": "projectId",
              "type": "uint256"
            },
            {
              "components": [
                {
                  "internalType": "string",
                  "name": "title",
                  "type": "string"
                },
                {
                  "internalType": "string",
                  "name": "description",
                  "type": "string"
                },
                {
                  "internalType": "uint256",
                  "name": "deadline",
                  "type": "uint256"
                },
                {
                  "internalType": "uint256",
                  "name": "reward",
                  "type": "uint256"
                },
                {
                  "internalType": "bool",
                  "name": "isCompleted",
                  "type": "bool"
                },
                {
                  "internalType": "address",
                  "name": "completedBy",
                  "type": "address"
                },
                {
                  "internalType": "uint256",
                  "name": "timestamp",
                  "type": "uint256"
                },
                {
                  "internalType": "bytes32",
                  "name": "contentHash",
                  "type": "bytes32"
                }
              ],
              "internalType": "struct ResearchProjectFactory.Milestone[]",
              "name": "milestones",
              "type": "tuple[]"
            }
          ],
          "internalType": "struct ResearchProjectFactory.Project[]",
          "name": "",
          "type": "tuple[]"
        }
      ],
      "stateMutability": "view",
      "type": "function"
    },
    {
      "inputs": [
        {
          "internalType": "address",
          "name": "projectAddr",
          "type": "address"
        },
        {
          "internalType": "string",
          "name": "_title",
          "type": "string"
        },
        {
          "internalType": "string",
          "name": "_description",
          "type": "string"
        },
        {
          "internalType": "uint256",
          "name": "_deadline",
          "type": "uint256"
        },
        {
          "internalType": "uint256",
          "name": "_reward",
          "type": "uint256"
        },
        {
          "internalType": "bytes32",
          "name": "_contentHash",
          "type": "bytes32"
        }
      ],
      "name": "updateProjectMilestones",
      "outputs": [],
      "stateMutability": "nonpayable",
      "type": "function"
    },
    {
      "inputs": [
        {
          "internalType": "uint256",
          "name": "projectId",
          "type": "uint256"
        }
      ],
      "name": "getProjectAddress",
      "outputs": [
        {
          "internalType": "address",
          "name": "",
          "type": "address"
        }
      ],
      "stateMutability": "view",
      "type": "function"
    }
  ],
  "bytecode": "0x608060405234801561001057600080fd5b506158a1806100206000396000f3fe60806040523480156200001157600080fd5b5060043610620000e25760003560e01c806380d0382911620000995780639e3b87ed116200006f5780639e3b87ed14620002ad578063a84cfba614620002cd578063b198b9311462000303578063cd2a0d0a146200033957620000e2565b806380d0382914620002185780638dd91a56146200023b5780639320db93146200027757620000e2565b80630da8923114620000e7578063107046bd146200011d57806336fbad2614620001535780634ca3e9b814620001755780635b3c022f14620001ab5780635f8439e314620001e1575b600080fd5b620001056004803603810190620000ff9190620024d3565b62000359565b60405162000114919062003238565b60405180910390f35b6200013b600480360381019062000135919062002691565b6200038b565b6040516200014a919062002fcb565b60405180910390f35b6200015d620003be565b6040516200016c919062003238565b60405180910390f35b6200019360048036038101906200018d919062002691565b620003c4565b604051620001a2919062002fcb565b60405180910390f35b620001c96004803603810190620001c3919062002637565b62000401565b604051620001d8919062003047565b60405180910390f35b620001ff6004803603810190620001f9919062002691565b62000436565b6040516200020f929190620031fd565b60405180910390f35b6200022262000b14565b604051620002329291906200300c565b60405180910390f35b62000259600480360381019062000253919062002691565b6200135a565b6040516200026e9796959493929190620030c8565b60405180910390f35b6200029560048036038101906200028f919062002514565b620014fc565b604051620002a4919062002fcb565b60405180910390f35b620002cb6004803603810190620002c59190620025af565b6200155e565b005b620002eb6004803603810190620002e59190620023df565b62001886565b604051620002fa919062002fe8565b60405180910390f35b6200032160048036038101906200031b919062002637565b62001ea0565b60405162000330919062003047565b60405180910390f35b6200035760048036038101906200035191906200240b565b62001ed9565b005b600360205281600052604060002081815481106200037657600080fd5b90600052602060002001600091509150505481565b60016020528060005260406000206000915054906101000a900473ffffffffffffffffffffffffffffffffffffffff1681565b60005481565b60006001600083815260200190815260200160002060009054906101000a900473ffffffffffffffffffffffffffffffffffffffff169050919050565b600082826040516020016200041892919062002f4d565b60405160208183030381529060405280519060200120905092915050565b62000440620021f6565b6060600054831062000489576040517f08c379a0000000000000000000000000000000000000000000000000000000008152600401620004809062003197565b60405180910390fd5b600060026000858152602001908152602001600020905080816007018160405180610100016040529081600082018054620004c490620034df565b80601f0160208091040260200160405190810160405280929190818152602001828054620004f290620034df565b8015620005435780601f10620005175761010080835404028352916020019162000543565b820191906000526020600020905b8154815290600101906020018083116200052557829003601f168201915b505050505081526020016001820180546200055e90620034df565b80601f01602080910402602001604051908101604052809291908181526020018280546200058c90620034df565b8015620005dd5780601f10620005b157610100808354040283529160200191620005dd565b820191906000526020600020905b815481529060010190602001808311620005bf57829003601f168201915b50505050508152602001600282015481526020016003820160009054906101000a900473ffffffffffffffffffffffffffffffffffffffff1673ffffffffffffffffffffffffffffffffffffffff1673ffffffffffffffffffffffffffffffffffffffff168152602001600482015481526020016005820160009054906101000a900473ffffffffffffffffffffffffffffffffffffffff1673ffffffffffffffffffffffffffffffffffffffff1673ffffffffffffffffffffffffffffffffffffffff1681526020016006820154815260200160078201805480602002602001604051908101604052809291908181526020016000905b82821015620008d75783829060005260206000209060070201604051806101000160405290816000820180546200070c90620034df565b80601f01602080910402602001604051908101604052809291908181526020018280546200073a90620034df565b80156200078b5780601f106200075f576101008083540402835291602001916200078b565b820191906000526020600020905b8154815290600101906020018083116200076d57829003601f168201915b50505050508152602001600182018054620007a690620034df565b80601f0160208091040260200160405190810160405280929190818152602001828054620007d490620034df565b8015620008255780601f10620007f95761010080835404028352916020019162000825565b820191906000526020600020905b8154815290600101906020018083116200080757829003601f168201915b5050505050815260200160028201548152602001600382015481526020016004820160009054906101000a900460ff161515151581526020016004820160019054906101000a900473ffffffffffffffffffffffffffffffffffffffff1673ffffffffffffffffffffffffffffffffffffffff1673ffffffffffffffffffffffffffffffffffffffff1681526020016005820154815260200160068201548152505081526020019060010190620006d5565b5050505081525050915080805480602002602001604051908101604052809291908181526020016000905b8282101562000b045783829060005260206000209060070201604051806101000160405290816000820180546200093990620034df565b80601f01602080910402602001604051908101604052809291908181526020018280546200096790620034df565b8015620009b85780601f106200098c57610100808354040283529160200191620009b8565b820191906000526020600020905b8154815290600101906020018083116200099a57829003601f168201915b50505050508152602001600182018054620009d390620034df565b80601f016020809104026020016040519081016040528092919081815260200182805462000a0190620034df565b801562000a525780601f1062000a265761010080835404028352916020019162000a52565b820191906000526020600020905b81548152906001019060200180831162000a3457829003601f168201915b5050505050815260200160028201548152602001600382015481526020016004820160009054906101000a900460ff161515151581526020016004820160019054906101000a900473ffffffffffffffffffffffffffffffffffffffff1673ffffffffffffffffffffffffffffffffffffffff1673ffffffffffffffffffffffffffffffffffffffff168152602001600582015481526020016006820154815250508152602001906001019062000902565b5050505090509250925050915091565b6060806000805467ffffffffffffffff81111562000b5b577f4e487b7100000000000000000000000000000000000000000000000000000000600052604160045260246000fd5b60405190808252806020026020018201604052801562000b9857816020015b62000b84620021f6565b81526020019060019003908162000b7a5790505b5090506000805467ffffffffffffffff81111562000bdf577f4e487b7100000000000000000000000000000000000000000000000000000000600052604160045260246000fd5b60405190808252806020026020018201604052801562000c1457816020015b606081526020019060019003908162000bfe5790505b50905060005b6000548110156200134d57600260008281526020019081526020016000206040518061010001604052908160008201805462000c5690620034df565b80601f016020809104026020016040519081016040528092919081815260200182805462000c8490620034df565b801562000cd55780601f1062000ca95761010080835404028352916020019162000cd5565b820191906000526020600020905b81548152906001019060200180831162000cb757829003601f168201915b5050505050815260200160018201805462000cf090620034df565b80601f016020809104026020016040519081016040528092919081815260200182805462000d1e90620034df565b801562000d6f5780601f1062000d435761010080835404028352916020019162000d6f565b820191906000526020600020905b81548152906001019060200180831162000d5157829003601f168201915b50505050508152602001600282015481526020016003820160009054906101000a900473ffffffffffffffffffffffffffffffffffffffff1673ffffffffffffffffffffffffffffffffffffffff1673ffffffffffffffffffffffffffffffffffffffff168152602001600482015481526020016005820160009054906101000a900473ffffffffffffffffffffffffffffffffffffffff1673ffffffffffffffffffffffffffffffffffffffff1673ffffffffffffffffffffffffffffffffffffffff1681526020016006820154815260200160078201805480602002602001604051908101604052809291908181526020016000905b828210156200106957838290600052602060002090600702016040518061010001604052908160008201805462000e9e90620034df565b80601f016020809104026020016040519081016040528092919081815260200182805462000ecc90620034df565b801562000f1d5780601f1062000ef15761010080835404028352916020019162000f1d565b820191906000526020600020905b81548152906001019060200180831162000eff57829003601f168201915b5050505050815260200160018201805462000f3890620034df565b80601f016020809104026020016040519081016040528092919081815260200182805462000f6690620034df565b801562000fb75780601f1062000f8b5761010080835404028352916020019162000fb7565b820191906000526020600020905b81548152906001019060200180831162000f9957829003601f168201915b5050505050815260200160028201548152602001600382015481526020016004820160009054906101000a900460ff161515151581526020016004820160019054906101000a900473ffffffffffffffffffffffffffffffffffffffff1673ffffffffffffffffffffffffffffffffffffffff1673ffffffffffffffffffffffffffffffffffffffff168152602001600582015481526020016006820154815250508152602001906001019062000e67565b5050505081525050838281518110620010ab577f4e487b7100000000000000000000000000000000000000000000000000000000600052603260045260246000fd5b602002602001018190525060026000828152602001908152602001600020600701805480602002602001604051908101604052809291908181526020016000905b82821015620012ee5783829060005260206000209060070201604051806101000160405290816000820180546200112390620034df565b80601f01602080910402602001604051908101604052809291908181526020018280546200115190620034df565b8015620011a25780601f106200117657610100808354040283529160200191620011a2565b820191906000526020600020905b8154815290600101906020018083116200118457829003601f168201915b50505050508152602001600182018054620011bd90620034df565b80601f0160208091040260200160405190810160405280929190818152602001828054620011eb90620034df565b80156200123c5780601f1062001210576101008083540402835291602001916200123c565b820191906000526020600020905b8154815290600101906020018083116200121e57829003601f168201915b5050505050815260200160028201548152602001600382015481526020016004820160009054906101000a900460ff161515151581526020016004820160019054906101000a900473ffffffffffffffffffffffffffffffffffffffff1673ffffffffffffffffffffffffffffffffffffffff1673ffffffffffffffffffffffffffffffffffffffff1681526020016005820154815260200160068201548152505081526020019060010190620010ec565b505050508282815181106200132c577f4e487b7100000000000000000000000000000000000000000000000000000000600052603260045260246000fd5b60200260200101819052508080620013449062003515565b91505062000c1a565b5081819350935050509091565b60026020528060005260406000206000915090508060000180546200137f90620034df565b80601f0160208091040260200160405190810160405280929190818152602001828054620013ad90620034df565b8015620013fe5780601f10620013d257610100808354040283529160200191620013fe565b820191906000526020600020905b815481529060010190602001808311620013e057829003601f168201915b5050505050908060010180546200141590620034df565b80601f01602080910402602001604051908101604052809291908181526020018280546200144390620034df565b8015620014945780601f10620014685761010080835404028352916020019162001494565b820191906000526020600020905b8154815290600101906020018083116200147657829003601f168201915b5050505050908060020154908060030160009054906101000a900473ffffffffffffffffffffffffffffffffffffffff16908060040154908060050160009054906101000a900473ffffffffffffffffffffffffffffffffffffffff16908060060154905087565b6000806200150d8787878762002120565b9050600060ff60f81b3085848051906020012060405160200162001535949392919062002ecf565b6040516020818303038152906040528051906020012090508060001c9250505095945050505050565b60006200156c848362000401565b905060006200157c858462001ea0565b90506200158b858484620021a4565b620015cd576040517f08c379a0000000000000000000000000000000000000000000000000000000008152600401620015c49062003175565b60405180910390fd5b600080620015de8733878762002120565b9050828151602083016000f59150600073ffffffffffffffffffffffffffffffffffffffff168273ffffffffffffffffffffffffffffffffffffffff1614156200165f576040517f08c379a0000000000000000000000000000000000000000000000000000000008152600401620016569062003153565b60405180910390fd5b60006002600080548152602001908152602001600020905087816000019080519060200190620016919291906200226a565b5086816001019080519060200190620016ac9291906200226a565b50858160020181905550338160030160006101000a81548173ffffffffffffffffffffffffffffffffffffffff021916908373ffffffffffffffffffffffffffffffffffffffff160217905550848160040181905550828160050160006101000a81548173ffffffffffffffffffffffffffffffffffffffff021916908373ffffffffffffffffffffffffffffffffffffffff16021790555060005481600601819055508273ffffffffffffffffffffffffffffffffffffffff167fecd8378950ef0c12e70bfd550ab81be61749b3d8c54935b46050f15ddf19a0e36000548a3389604051620017a0949392919062003255565b60405180910390a282600160008054815260200190815260200160002060006101000a81548173ffffffffffffffffffffffffffffffffffffffff021916908373ffffffffffffffffffffffffffffffffffffffff160217905550600360003373ffffffffffffffffffffffffffffffffffffffff1673ffffffffffffffffffffffffffffffffffffffff1681526020019081526020016000206000549080600181540180825580915050600190039060005260206000200160009091909190915055600080815480929190620018779062003515565b91905055505050505050505050565b60606000600360008473ffffffffffffffffffffffffffffffffffffffff1673ffffffffffffffffffffffffffffffffffffffff1681526020019081526020016000208054806020026020016040519081016040528092919081815260200182805480156200191557602002820191906000526020600020905b81548152602001906001019080831162001900575b505050505090506000815167ffffffffffffffff81111562001960577f4e487b7100000000000000000000000000000000000000000000000000000000600052604160045260246000fd5b6040519080825280602002602001820160405280156200199d57816020015b62001989620021f6565b8152602001906001900390816200197f5790505b50905060005b825181101562001e955760026000848381518110620019eb577f4e487b7100000000000000000000000000000000000000000000000000000000600052603260045260246000fd5b602002602001015181526020019081526020016000206040518061010001604052908160008201805462001a1f90620034df565b80601f016020809104026020016040519081016040528092919081815260200182805462001a4d90620034df565b801562001a9e5780601f1062001a725761010080835404028352916020019162001a9e565b820191906000526020600020905b81548152906001019060200180831162001a8057829003601f168201915b5050505050815260200160018201805462001ab990620034df565b80601f016020809104026020016040519081016040528092919081815260200182805462001ae790620034df565b801562001b385780601f1062001b0c5761010080835404028352916020019162001b38565b820191906000526020600020905b81548152906001019060200180831162001b1a57829003601f168201915b50505050508152602001600282015481526020016003820160009054906101000a900473ffffffffffffffffffffffffffffffffffffffff1673ffffffffffffffffffffffffffffffffffffffff1673ffffffffffffffffffffffffffffffffffffffff168152602001600482015481526020016005820160009054906101000a900473ffffffffffffffffffffffffffffffffffffffff1673ffffffffffffffffffffffffffffffffffffffff1673ffffffffffffffffffffffffffffffffffffffff1681526020016006820154815260200160078201805480602002602001604051908101604052809291908181526020016000905b8282101562001e3257838290600052602060002090600702016040518061010001604052908160008201805462001c6790620034df565b80601f016020809104026020016040519081016040528092919081815260200182805462001c9590620034df565b801562001ce65780601f1062001cba5761010080835404028352916020019162001ce6565b820191906000526020600020905b81548152906001019060200180831162001cc857829003601f168201915b5050505050815260200160018201805462001d0190620034df565b80601f016020809104026020016040519081016040528092919081815260200182805462001d2f90620034df565b801562001d805780601f1062001d545761010080835404028352916020019162001d80565b820191906000526020600020905b81548152906001019060200180831162001d6257829003601f168201915b5050505050815260200160028201548152602001600382015481526020016004820160009054906101000a900460ff161515151581526020016004820160019054906101000a900473ffffffffffffffffffffffffffffffffffffffff1673ffffffffffffffffffffffffffffffffffffffff1673ffffffffffffffffffffffffffffffffffffffff168152602001600582015481526020016006820154815250508152602001906001019062001c30565b505050508152505082828151811062001e74577f4e487b7100000000000000000000000000000000000000000000000000000000600052603260045260246000fd5b6020026020010181905250808062001e8c9062003515565b915050620019a3565b508092505050919050565b60004233848460405160200162001ebb949392919062002f79565b60405160208183030381529060405280519060200120905092915050565b60dc821162001f1f576040517f08c379a000000000000000000000000000000000000000000000000000000000815260040162001f1690620031db565b60405180910390fd5b60005b60005481101562002117578673ffffffffffffffffffffffffffffffffffffffff166002600083815260200190815260200160002060050160009054906101000a900473ffffffffffffffffffffffffffffffffffffffff1673ffffffffffffffffffffffffffffffffffffffff161415620021015760026000828152602001908152602001600020600701604051806101000160405280888152602001878152602001868152602001858152602001600015158152602001600073ffffffffffffffffffffffffffffffffffffffff1681526020016000815260200184815250908060018154018082558091505060019003906000526020600020906007020160009091909190915060008201518160000190805190602001906200204a9291906200226a565b506020820151816001019080519060200190620020699291906200226a565b50604082015181600201556060820151816003015560808201518160040160006101000a81548160ff02191690831515021790555060a08201518160040160016101000a81548173ffffffffffffffffffffffffffffffffffffffff021916908373ffffffffffffffffffffffffffffffffffffffff16021790555060c0820151816005015560e08201518160060155505062002117565b80806200210e9062003515565b91505062001f22565b50505050505050565b60606000604051806020016200213690620022fb565b6020820181038252601f19601f8201166040525090508086868686306040516020016200216895949392919062003064565b6040516020818303038152906040526040516020016200218a92919062002f25565b604051602081830303815290604052915050949350505050565b6000808311620021eb576040517f08c379a0000000000000000000000000000000000000000000000000000000008152600401620021e290620031b9565b60405180910390fd5b600190509392505050565b604051806101000160405280606081526020016060815260200160008152602001600073ffffffffffffffffffffffffffffffffffffffff16815260200160008019168152602001600073ffffffffffffffffffffffffffffffffffffffff16815260200160008152602001606081525090565b8280546200227890620034df565b90600052602060002090601f0160209004810192826200229c5760008555620022e8565b82601f10620022b757805160ff1916838001178555620022e8565b82800160010185558215620022e8579182015b82811115620022e7578251825591602001919060010190620022ca565b5b509050620022f7919062002309565b5090565b6121c980620036a383390190565b5b80821115620023245760008160009055506001016200230a565b5090565b60006200233f6200233984620032dd565b620032a9565b9050828152602081018484840111156200235857600080fd5b620023658482856200349a565b509392505050565b6000813590506200237e8162003654565b92915050565b60008135905062002395816200366e565b92915050565b600082601f830112620023ad57600080fd5b8135620023bf84826020860162002328565b91505092915050565b600081359050620023d98162003688565b92915050565b600060208284031215620023f257600080fd5b600062002402848285016200236d565b91505092915050565b60008060008060008060c087890312156200242557600080fd5b60006200243589828a016200236d565b965050602087013567ffffffffffffffff8111156200245357600080fd5b6200246189828a016200239b565b955050604087013567ffffffffffffffff8111156200247f57600080fd5b6200248d89828a016200239b565b9450506060620024a089828a01620023c8565b9350506080620024b389828a01620023c8565b92505060a0620024c689828a0162002384565b9150509295509295509295565b60008060408385031215620024e757600080fd5b6000620024f7858286016200236d565b92505060206200250a85828601620023c8565b9150509250929050565b600080600080600060a086880312156200252d57600080fd5b600086013567ffffffffffffffff8111156200254857600080fd5b62002556888289016200239b565b955050602062002569888289016200236d565b94505060406200257c88828901620023c8565b93505060606200258f8882890162002384565b9250506080620025a28882890162002384565b9150509295509295909350565b600080600060608486031215620025c557600080fd5b600084013567ffffffffffffffff811115620025e057600080fd5b620025ee868287016200239b565b935050602084013567ffffffffffffffff8111156200260c57600080fd5b6200261a868287016200239b565b92505060406200262d86828701620023c8565b9150509250925092565b600080604083850312156200264b57600080fd5b600083013567ffffffffffffffff8111156200266657600080fd5b62002674858286016200239b565b92505060206200268785828601620023c8565b9150509250929050565b600060208284031215620026a457600080fd5b6000620026b484828501620023c8565b91505092915050565b6000620026cb8383620027bd565b905092915050565b6000620026e1838362002c2f565b905092915050565b6000620026f7838362002cf6565b905092915050565b6200270a816200341a565b82525050565b6200271b816200341a565b82525050565b6200273662002730826200341a565b62003563565b82525050565b6000620027498262003340565b6200275581856200339e565b935083602082028501620027698562003310565b8060005b85811015620027ab5784840389528151620027898582620026bd565b9450620027968362003377565b925060208a019950506001810190506200276d565b50829750879550505050505092915050565b6000620027ca826200334b565b620027d68185620033af565b935083602082028501620027ea8562003320565b8060005b858110156200282c57848403895281516200280a8582620026d3565b9450620028178362003384565b925060208a01995050600181019050620027ee565b50829750879550505050505092915050565b60006200284b826200334b565b620028578185620033c0565b9350836020820285016200286b8562003320565b8060005b85811015620028ad57848403895281516200288b8582620026d3565b9450620028988362003384565b925060208a019950506001810190506200286f565b50829750879550505050505092915050565b6000620028cc8262003356565b620028d88185620033d1565b935083602082028501620028ec8562003330565b8060005b858110156200292e57848403895281516200290c8582620026e9565b9450620029198362003391565b925060208a01995050600181019050620028f0565b50829750879550505050505092915050565b6200294b816200342e565b82525050565b6200296662002960826200343a565b62003577565b82525050565b620029778162003466565b82525050565b620029888162003466565b82525050565b620029a36200299d8262003466565b62003581565b82525050565b6000620029b68262003361565b620029c28185620033e2565b9350620029d4818560208601620034a9565b80840191505092915050565b6000620029ed826200336c565b620029f98185620033ed565b935062002a0b818560208601620034a9565b62002a168162003636565b840191505092915050565b600062002a2e826200336c565b62002a3a8185620033fe565b935062002a4c818560208601620034a9565b62002a578162003636565b840191505092915050565b600062002a6f826200336c565b62002a7b81856200340f565b935062002a8d818560208601620034a9565b80840191505092915050565b600062002aa8602183620033fe565b91507f4661696c656420746f206372656174652070726f6a65637420636f6e7472616360008301527f74000000000000000000000000000000000000000000000000000000000000006020830152604082019050919050565b600062002b10601c83620033fe565b91507f50726f706f73616c20766572696669636174696f6e206661696c6564000000006000830152602082019050919050565b600062002b52601283620033fe565b91507f496e76616c69642070726f6a65637420494400000000000000000000000000006000830152602082019050919050565b600062002b94602283620033fe565b91507f496e73756666696369656e742066756e647320666f72207468652070726f6a6560008301527f63740000000000000000000000000000000000000000000000000000000000006020830152604082019050919050565b600062002bfc601f83620033fe565b91507f526577617264206d7573742062652067726561746572207468616e20323230006000830152602082019050919050565b600061010083016000830151848203600086015262002c4f8282620029e0565b9150506020830151848203602086015262002c6b8282620029e0565b915050604083015162002c82604086018262002e92565b50606083015162002c97606086018262002e92565b50608083015162002cac608086018262002940565b5060a083015162002cc160a0860182620026ff565b5060c083015162002cd660c086018262002e92565b5060e083015162002ceb60e08601826200296c565b508091505092915050565b600061010083016000830151848203600086015262002d168282620029e0565b9150506020830151848203602086015262002d328282620029e0565b915050604083015162002d49604086018262002e92565b50606083015162002d5e6060860182620026ff565b50608083015162002d7360808601826200296c565b5060a083015162002d8860a0860182620026ff565b5060c083015162002d9d60c086018262002e92565b5060e083015184820360e086015262002db78282620027bd565b9150508091505092915050565b600061010083016000830151848203600086015262002de48282620029e0565b9150506020830151848203602086015262002e008282620029e0565b915050604083015162002e17604086018262002e92565b50606083015162002e2c6060860182620026ff565b50608083015162002e4160808601826200296c565b5060a083015162002e5660a0860182620026ff565b5060c083015162002e6b60c086018262002e92565b5060e083015184820360e086015262002e858282620027bd565b9150508091505092915050565b62002e9d8162003490565b82525050565b62002eae8162003490565b82525050565b62002ec962002ec38262003490565b6200359f565b82525050565b600062002edd828762002951565b60018201915062002eef828662002721565b60148201915062002f0182856200298e565b60208201915062002f1382846200298e565b60208201915081905095945050505050565b600062002f338285620029a9565b915062002f418284620029a9565b91508190509392505050565b600062002f5b828562002a62565b915062002f69828462002eb4565b6020820191508190509392505050565b600062002f87828762002eb4565b60208201915062002f99828662002721565b60148201915062002fab828562002a62565b915062002fb9828462002eb4565b60208201915081905095945050505050565b600060208201905062002fe2600083018462002710565b92915050565b60006020820190508181036000830152620030048184620028bf565b905092915050565b60006040820190508181036000830152620030288185620028bf565b905081810360208301526200303e81846200273c565b90509392505050565b60006020820190506200305e60008301846200297d565b92915050565b600060a082019050818103600083015262003080818862002a21565b905062003091602083018762002710565b620030a0604083018662002ea3565b620030af60608301856200297d565b620030be608083018462002710565b9695505050505050565b600060e0820190508181036000830152620030e4818a62002a21565b90508181036020830152620030fa818962002a21565b90506200310b604083018862002ea3565b6200311a606083018762002710565b6200312960808301866200297d565b6200313860a083018562002710565b6200314760c083018462002ea3565b98975050505050505050565b600060208201905081810360008301526200316e8162002a99565b9050919050565b60006020820190508181036000830152620031908162002b01565b9050919050565b60006020820190508181036000830152620031b28162002b43565b9050919050565b60006020820190508181036000830152620031d48162002b85565b9050919050565b60006020820190508181036000830152620031f68162002bed565b9050919050565b6000604082019050818103600083015262003219818562002dc4565b905081810360208301526200322f81846200283e565b90509392505050565b60006020820190506200324f600083018462002ea3565b92915050565b60006080820190506200326c600083018762002ea3565b818103602083015262003280818662002a21565b905062003291604083018562002710565b620032a060608301846200297d565b95945050505050565b6000604051905081810181811067ffffffffffffffff82111715620032d357620032d262003607565b5b8060405250919050565b600067ffffffffffffffff821115620032fb57620032fa62003607565b5b601f19601f8301169050602081019050919050565b6000819050602082019050919050565b6000819050602082019050919050565b6000819050602082019050919050565b600081519050919050565b600081519050919050565b600081519050919050565b600081519050919050565b600081519050919050565b6000602082019050919050565b6000602082019050919050565b6000602082019050919050565b600082825260208201905092915050565b600082825260208201905092915050565b600082825260208201905092915050565b600082825260208201905092915050565b600081905092915050565b600082825260208201905092915050565b600082825260208201905092915050565b600081905092915050565b6000620034278262003470565b9050919050565b60008115159050919050565b60007fff0000000000000000000000000000000000000000000000000000000000000082169050919050565b6000819050919050565b600073ffffffffffffffffffffffffffffffffffffffff82169050919050565b6000819050919050565b82818337600083830152505050565b60005b83811015620034c9578082015181840152602081019050620034ac565b83811115620034d9576000848401525b50505050565b60006002820490506001821680620034f857607f821691505b602082108114156200350f576200350e620035d8565b5b50919050565b6000620035228262003490565b91507fffffffffffffffffffffffffffffffffffffffffffffffffffffffffffffffff821415620035585762003557620035a9565b5b600182019050919050565b600062003570826200358b565b9050919050565b6000819050919050565b6000819050919050565b6000620035988262003647565b9050919050565b6000819050919050565b7f4e487b7100000000000000000000000000000000000000000000000000000000600052601160045260246000fd5b7f4e487b7100000000000000000000000000000000000000000000000000000000600052602260045260246000fd5b7f4e487b7100000000000000000000000000000000000000000000000000000000600052604160045260246000fd5b6000601f19601f8301169050919050565b60008160601b9050919050565b6200365f816200341a565b81146200366b57600080fd5b50565b620036798162003466565b81146200368557600080fd5b50565b620036938162003490565b81146200369f57600080fd5b5056fe60806040523480156200001157600080fd5b50604051620021c9380380620021c98339818101604052810190620000379190620002af565b85600090805190602001906200004f92919062000148565b5084600160006101000a81548173ffffffffffffffffffffffffffffffffffffffff021916908373ffffffffffffffffffffffffffffffffffffffff160217905550836002819055508260058190555081600660006101000a81548173ffffffffffffffffffffffffffffffffffffffff021916908373ffffffffffffffffffffffffffffffffffffffff1602179055506001600460006101000a81548160ff02191690831515021790555080600860006101000a81548173ffffffffffffffffffffffffffffffffffffffff021916908373ffffffffffffffffffffffffffffffffffffffff16021790555050505050505062000525565b828054620001569062000443565b90600052602060002090601f0160209004810192826200017a5760008555620001c6565b82601f106200019557805160ff1916838001178555620001c6565b82800160010185558215620001c6579182015b82811115620001c5578251825591602001919060010190620001a8565b5b509050620001d59190620001d9565b5090565b5b80821115620001f4576000816000905550600101620001da565b5090565b60006200020f620002098462000392565b6200035e565b9050828152602081018484840111156200022857600080fd5b620002358482856200040d565b509392505050565b6000815190506200024e81620004d7565b92915050565b6000815190506200026581620004f1565b92915050565b600082601f8301126200027d57600080fd5b81516200028f848260208601620001f8565b91505092915050565b600081519050620002a9816200050b565b92915050565b60008060008060008060c08789031215620002c957600080fd5b600087015167ffffffffffffffff811115620002e457600080fd5b620002f289828a016200026b565b96505060206200030589828a016200023d565b95505060406200031889828a0162000298565b94505060606200032b89828a0162000254565b93505060806200033e89828a016200023d565b92505060a06200035189828a016200023d565b9150509295509295509295565b6000604051905081810181811067ffffffffffffffff82111715620003885762000387620004a8565b5b8060405250919050565b600067ffffffffffffffff821115620003b057620003af620004a8565b5b601f19601f8301169050602081019050919050565b6000620003d282620003e3565b9050919050565b6000819050919050565b600073ffffffffffffffffffffffffffffffffffffffff82169050919050565b6000819050919050565b60005b838110156200042d57808201518184015260208101905062000410565b838111156200043d576000848401525b50505050565b600060028204905060018216806200045c57607f821691505b6020821081141562000473576200047262000479565b5b50919050565b7f4e487b7100000000000000000000000000000000000000000000000000000000600052602260045260246000fd5b7f4e487b7100000000000000000000000000000000000000000000000000000000600052604160045260246000fd5b620004e281620003c5565b8114620004ee57600080fd5b50565b620004fc81620003d9565b81146200050857600080fd5b50565b620005168162000403565b81146200052257600080fd5b50565b611c9480620005356000396000f3fe6080604052600436106100c65760003560e01c8063966dae0e1161007f578063d63dc66111610059578063d63dc66114610253578063e89e4ed61461025d578063f1bc2d34146102a1578063fe47a8a7146102ca576100cd565b8063966dae0e146101d4578063ae1fb92f146101ff578063cedece7414610228576100cd565b806322f3e2d4146100d25780633cf96af1146100fd578063481c6a75146101285780634a79d50c146101535780635c43dd991461017e5780636c5fc62d146101a9576100cd565b366100cd57005b600080fd5b3480156100de57600080fd5b506100e76102f5565b6040516100f4919061168b565b60405180910390f35b34801561010957600080fd5b50610112610308565b60405161011f919061164e565b60405180910390f35b34801561013457600080fd5b5061013d61032e565b60405161014a919061164e565b60405180910390f35b34801561015f57600080fd5b50610168610354565b60405161017591906116c1565b60405180910390f35b34801561018a57600080fd5b506101936103e2565b6040516101a09190611669565b60405180910390f35b3480156101b557600080fd5b506101be6106ac565b6040516101cb91906116a6565b60405180910390f35b3480156101e057600080fd5b506101e96106b2565b6040516101f6919061164e565b60405180910390f35b34801561020b57600080fd5b5061022660048036038101906102219190611113565b6106d8565b005b34801561023457600080fd5b5061023d6109cf565b60405161024a91906118af565b60405180910390f35b61025b6109d5565b005b34801561026957600080fd5b50610284600480360381019061027f91906110ea565b6109f0565b6040516102989897969594939291906116e3565b60405180910390f35b3480156102ad57600080fd5b506102c860048036038101906102c39190611043565b610b75565b005b3480156102d657600080fd5b506102df610ea8565b6040516102ec91906118af565b60405180910390f35b600460009054906101000a900460ff1681565b600660009054906101000a900473ffffffffffffffffffffffffffffffffffffffff1681565b600160009054906101000a900473ffffffffffffffffffffffffffffffffffffffff1681565b6000805461036190611b17565b80601f016020809104026020016040519081016040528092919081815260200182805461038d90611b17565b80156103da5780601f106103af576101008083540402835291602001916103da565b820191906000526020600020905b8154815290600101906020018083116103bd57829003601f168201915b505050505081565b6060600060035467ffffffffffffffff811115610428577f4e487b7100000000000000000000000000000000000000000000000000000000600052604160045260246000fd5b60405190808252806020026020018201604052801561046157816020015b61044e610eae565b8152602001906001900390816104465790505b50905060005b6003548110156106a45760076000828152602001908152602001600020604051806101000160405290816000820180546104a090611b17565b80601f01602080910402602001604051908101604052809291908181526020018280546104cc90611b17565b80156105195780601f106104ee57610100808354040283529160200191610519565b820191906000526020600020905b8154815290600101906020018083116104fc57829003601f168201915b5050505050815260200160018201805461053290611b17565b80601f016020809104026020016040519081016040528092919081815260200182805461055e90611b17565b80156105ab5780601f10610580576101008083540402835291602001916105ab565b820191906000526020600020905b81548152906001019060200180831161058e57829003601f168201915b5050505050815260200160028201548152602001600382015481526020016004820160009054906101000a900460ff161515151581526020016004820160019054906101000a900473ffffffffffffffffffffffffffffffffffffffff1673ffffffffffffffffffffffffffffffffffffffff1673ffffffffffffffffffffffffffffffffffffffff16815260200160058201548152602001600682015481525050828281518110610686577f4e487b7100000000000000000000000000000000000000000000000000000000600052603260045260246000fd5b6020026020010181905250808061069c90611b49565b915050610467565b508091505090565b60055481565b600860009054906101000a900473ffffffffffffffffffffffffffffffffffffffff1681565b8160006007600083815260200190815260200160002060010180546106fc90611b17565b9050141561073f576040517f08c379a0000000000000000000000000000000000000000000000000000000008152600401610736906117af565b60405180910390fd5b6000600760008581526020019081526020016000209050806002015442111561079d576040517f08c379a00000000000000000000000000000000000000000000000000000000081526004016107949061180f565b60405180910390fd5b8060040160009054906101000a900460ff16156107ef576040517f08c379a00000000000000000000000000000000000000000000000000000000081526004016107e69061184f565b60405180910390fd5b82816006015414610835576040517f08c379a000000000000000000000000000000000000000000000000000000000815260040161082c9061182f565b60405180910390fd5b60018160040160006101000a81548160ff021916908315150217905550338160040160016101000a81548173ffffffffffffffffffffffffffffffffffffffff021916908373ffffffffffffffffffffffffffffffffffffffff1602179055504281600501819055507f785f24b6a98eafa7fd61a09cf31775b7bbc039cc966c9c6fad18743e13a9e1ea8433426040516108d1939291906118ca565b60405180910390a160003373ffffffffffffffffffffffffffffffffffffffff16826003015460405161090390611639565b60006040518083038185875af1925050503d8060008114610940576040519150601f19603f3d011682016040523d82523d6000602084013e610945565b606091505b5050905080610989576040517f08c379a00000000000000000000000000000000000000000000000000000000081526004016109809061178f565b60405180910390fd5b7ff440aec6b52895984d061d622e6edeba6210f7c3e059be920663140c084560d7853384600301546040516109c0939291906118ca565b60405180910390a15050505050565b60035481565b34600260008282546109e79190611a2d565b92505081905550565b6007602052806000526040600020600091509050806000018054610a1390611b17565b80601f0160208091040260200160405190810160405280929190818152602001828054610a3f90611b17565b8015610a8c5780601f10610a6157610100808354040283529160200191610a8c565b820191906000526020600020905b815481529060010190602001808311610a6f57829003601f168201915b505050505090806001018054610aa190611b17565b80601f0160208091040260200160405190810160405280929190818152602001828054610acd90611b17565b8015610b1a5780601f10610aef57610100808354040283529160200191610b1a565b820191906000526020600020905b815481529060010190602001808311610afd57829003601f168201915b5050505050908060020154908060030154908060040160009054906101000a900460ff16908060040160019054906101000a900473ffffffffffffffffffffffffffffffffffffffff16908060050154908060060154905088565b600160009054906101000a900473ffffffffffffffffffffffffffffffffffffffff1673ffffffffffffffffffffffffffffffffffffffff163373ffffffffffffffffffffffffffffffffffffffff1614610c05576040517f08c379a0000000000000000000000000000000000000000000000000000000008152600401610bfc9061176f565b60405180910390fd5b6000855111610c49576040517f08c379a0000000000000000000000000000000000000000000000000000000008152600401610c40906117ef565b60405180910390fd5b6000845111610c8d576040517f08c379a0000000000000000000000000000000000000000000000000000000008152600401610c84906117cf565b60405180910390fd5b428311610ccf576040517f08c379a0000000000000000000000000000000000000000000000000000000008152600401610cc69061188f565b60405180910390fd5b60008211610d12576040517f08c379a0000000000000000000000000000000000000000000000000000000008152600401610d099061186f565b60405180910390fd5b604051806101000160405280868152602001858152602001848152602001838152602001600015158152602001600073ffffffffffffffffffffffffffffffffffffffff16815260200160008152602001828152506007600060035481526020019081526020016000206000820151816000019080519060200190610d98929190610f0e565b506020820151816001019080519060200190610db5929190610f0e565b50604082015181600201556060820151816003015560808201518160040160006101000a81548160ff02191690831515021790555060a08201518160040160016101000a81548173ffffffffffffffffffffffffffffffffffffffff021916908373ffffffffffffffffffffffffffffffffffffffff16021790555060c0820151816005015560e082015181600601559050507fedac9c81c000b2e5569a608a0dfe5a240e99555ef7d2e6b24193583ae48c8e0a60035485858585604051610e81959493929190611901565b60405180910390a160036000815480929190610e9c90611b49565b91905055505050505050565b60025481565b60405180610100016040528060608152602001606081526020016000815260200160008152602001600015158152602001600073ffffffffffffffffffffffffffffffffffffffff16815260200160008152602001600080191681525090565b828054610f1a90611b17565b90600052602060002090601f016020900481019282610f3c5760008555610f83565b82601f10610f5557805160ff1916838001178555610f83565b82800160010185558215610f83579182015b82811115610f82578251825591602001919060010190610f67565b5b509050610f909190610f94565b5090565b5b80821115610fad576000816000905550600101610f95565b5090565b6000610fc4610fbf8461198c565b61195b565b905082815260208101848484011115610fdc57600080fd5b610fe7848285611ad5565b509392505050565b600081359050610ffe81611c30565b92915050565b600082601f83011261101557600080fd5b8135611025848260208601610fb1565b91505092915050565b60008135905061103d81611c47565b92915050565b600080600080600060a0868803121561105b57600080fd5b600086013567ffffffffffffffff81111561107557600080fd5b61108188828901611004565b955050602086013567ffffffffffffffff81111561109e57600080fd5b6110aa88828901611004565b94505060406110bb8882890161102e565b93505060606110cc8882890161102e565b92505060806110dd88828901610fef565b9150509295509295909350565b6000602082840312156110fc57600080fd5b600061110a8482850161102e565b91505092915050565b6000806040838503121561112657600080fd5b60006111348582860161102e565b925050602061114585828601610fef565b9150509250929050565b600061115b8383611564565b905092915050565b61116c81611a83565b82525050565b61117b81611a83565b82525050565b600061118c826119cc565b61119681856119ef565b9350836020820285016111a8856119bc565b8060005b858110156111e457848403895281516111c5858261114f565b94506111d0836119e2565b925060208a019950506001810190506111ac565b50829750879550505050505092915050565b6111ff81611a95565b82525050565b61120e81611a95565b82525050565b61121d81611aa1565b82525050565b61122c81611aa1565b82525050565b600061123d826119d7565b6112478185611a0b565b9350611257818560208601611ae4565b61126081611c1f565b840191505092915050565b6000611276826119d7565b6112808185611a1c565b9350611290818560208601611ae4565b61129981611c1f565b840191505092915050565b60006112b1602c83611a1c565b91507f4f6e6c792070726f6a656374206d616e616765722063616e20706572666f726d60008301527f207468697320616374696f6e00000000000000000000000000000000000000006020830152604082019050919050565b6000611317600f83611a1c565b91507f5472616e73666572206661696c656400000000000000000000000000000000006000830152602082019050919050565b6000611357601883611a1c565b91507f4d696c6573746f6e6520646f6573206e6f7420657869737400000000000000006000830152602082019050919050565b6000611397601b83611a1c565b91507f4465736372697074696f6e2063616e6e6f7420626520656d70747900000000006000830152602082019050919050565b60006113d7601583611a1c565b91507f5469746c652063616e6e6f7420626520656d70747900000000000000000000006000830152602082019050919050565b6000611417601d83611a1c565b91507f4d696c6573746f6e6520646561646c696e6520686173207061737365640000006000830152602082019050919050565b6000611457601b83611a1c565b91507f436f6e74656e74206861736820646f6573206e6f74206d6174636800000000006000830152602082019050919050565b6000611497601b83611a1c565b91507f4d696c6573746f6e6520616c726561647920636f6d706c6574656400000000006000830152602082019050919050565b60006114d7602083611a1c565b91507f526577617264206d7573742062652067726561746572207468616e207a65726f6000830152602082019050919050565b6000611517600083611a00565b9150600082019050919050565b6000611531601e83611a1c565b91507f446561646c696e65206d75737420626520696e207468652066757475726500006000830152602082019050919050565b60006101008301600083015184820360008601526115828282611232565b9150506020830151848203602086015261159c8282611232565b91505060408301516115b1604086018261161b565b5060608301516115c4606086018261161b565b5060808301516115d760808601826111f6565b5060a08301516115ea60a0860182611163565b5060c08301516115fd60c086018261161b565b5060e083015161161060e0860182611214565b508091505092915050565b61162481611acb565b82525050565b61163381611acb565b82525050565b60006116448261150a565b9150819050919050565b60006020820190506116636000830184611172565b92915050565b600060208201905081810360008301526116838184611181565b905092915050565b60006020820190506116a06000830184611205565b92915050565b60006020820190506116bb6000830184611223565b92915050565b600060208201905081810360008301526116db818461126b565b905092915050565b60006101008201905081810360008301526116fe818b61126b565b90508181036020830152611712818a61126b565b9050611721604083018961162a565b61172e606083018861162a565b61173b6080830187611205565b61174860a0830186611172565b61175560c083018561162a565b61176260e0830184611223565b9998505050505050505050565b60006020820190508181036000830152611788816112a4565b9050919050565b600060208201905081810360008301526117a88161130a565b9050919050565b600060208201905081810360008301526117c88161134a565b9050919050565b600060208201905081810360008301526117e88161138a565b9050919050565b60006020820190508181036000830152611808816113ca565b9050919050565b600060208201905081810360008301526118288161140a565b9050919050565b600060208201905081810360008301526118488161144a565b9050919050565b600060208201905081810360008301526118688161148a565b9050919050565b60006020820190508181036000830152611888816114ca565b9050919050565b600060208201905081810360008301526118a881611524565b9050919050565b60006020820190506118c4600083018461162a565b92915050565b60006060820190506118df600083018661162a565b6118ec6020830185611172565b6118f9604083018461162a565b949350505050565b600060a082019050611916600083018861162a565b8181036020830152611928818761126b565b9050611937604083018661162a565b611944606083018561162a565b6119516080830184611223565b9695505050505050565b6000604051905081810181811067ffffffffffffffff8211171561198257611981611bf0565b5b8060405250919050565b600067ffffffffffffffff8211156119a7576119a6611bf0565b5b601f19601f8301169050602081019050919050565b6000819050602082019050919050565b600081519050919050565b600081519050919050565b6000602082019050919050565b600082825260208201905092915050565b600081905092915050565b600082825260208201905092915050565b600082825260208201905092915050565b6000611a3882611acb565b9150611a4383611acb565b9250827fffffffffffffffffffffffffffffffffffffffffffffffffffffffffffffffff03821115611a7857611a77611b92565b5b828201905092915050565b6000611a8e82611aab565b9050919050565b60008115159050919050565b6000819050919050565b600073ffffffffffffffffffffffffffffffffffffffff82169050919050565b6000819050919050565b82818337600083830152505050565b60005b83811015611b02578082015181840152602081019050611ae7565b83811115611b11576000848401525b50505050565b60006002820490506001821680611b2f57607f821691505b60208210811415611b4357611b42611bc1565b5b50919050565b6000611b5482611acb565b91507fffffffffffffffffffffffffffffffffffffffffffffffffffffffffffffffff821415611b8757611b86611b92565b5b600182019050919050565b7f4e487b7100000000000000000000000000000000000000000000000000000000600052601160045260246000fd5b7f4e487b7100000000000000000000000000000000000000000000000000000000600052602260045260246000fd5b7f4e487b7100000000000000000000000000000000000000000000000000000000600052604160045260246000fd5b6000601f19601f8301169050919050565b611c3981611aa1565b8114611c4457600080fd5b50565b611c5081611acb565b8114611c5b57600080fd5b5056fea2646970667358221220ca22782191c3de73b4d5e26e3fd1a2aa25d3b954c130900f1596e60bb76a888864736f6c63430008000033a2646970667358221220d962bd64c191dc2fde7c96cfbb05d2e8fe02392ef85ff465ac6e62fb8b01320364736f6c63430008000033",
  "immutableReferences": {},
  "source": "// SPDX-License-Identifier: MIT\r\npragma solidity ^0.8.0;\r\n\r\nimport \"./ResearchProject.sol\";\r\n\r\ncontract ResearchProjectFactory {\r\n    uint256 public projectCount;\r\n    mapping(uint256 => address) public projects;\r\n\r\n    // Mapping to store details about each project\r\n    mapping(uint256 => Project) public projectDetails;\r\n\r\n    //mapping to get projects by creator\r\n    mapping(address => uint256[]) public projectsByCreator;\r\n\r\n    struct Project {\r\n        string title;\r\n        string description;\r\n        uint256 totalFunding;\r\n        address manager;\r\n        bytes32 projectHash;\r\n        address projectAddress;\r\n        uint256 projectId;\r\n        Milestone[] milestones;\r\n    }\r\n\r\n    struct Milestone {\r\n        string title;\r\n        string description;\r\n        uint256 deadline;\r\n        uint256 reward;\r\n        bool isCompleted;\r\n        address completedBy;\r\n        uint256 timestamp;\r\n        bytes32 contentHash;\r\n    }\r\n    \r\n    // Milestone[] memory _milestone;\r\n    event ProjectCreated(address indexed projectContractAddress, uint256 projectId, string title, address manager, bytes32 projectHash);\r\n\r\n    function verifyProposal(string memory _title, uint256 _totalFunding, bytes32 _projectHash) internal pure returns (bool) {\r\n        require(_totalFunding > 0, \"Insufficient funds for the project\");\r\n        return true;\r\n    }\r\n\r\n    function createResearchProject(\r\n        string memory _title,\r\n        string memory _description,\r\n        uint256 _totalFunding\r\n    ) external {\r\n        // Automatically generate _projectHash and salt\r\n        bytes32 _projectHash = generateProjectHash(_title, _totalFunding);\r\n        bytes32 salt = generateSalt(_title, _totalFunding);\r\n\r\n        require(verifyProposal(_title, _totalFunding, _projectHash), \"Proposal verification failed\");\r\n\r\n        address projectAddress;\r\n        bytes memory bytecode = getBytecode(_title, msg.sender, _totalFunding, _projectHash);\r\n\r\n        assembly {\r\n            projectAddress := create2(0, add(bytecode, 32), mload(bytecode), salt)\r\n        }\r\n\r\n        require(projectAddress != address(0), \"Failed to create project contract\");\r\n\r\n        \r\n\r\n        // Create a new project instance\r\n        Project storage newProject = projectDetails[projectCount];\r\n        \r\n        newProject.title = _title;\r\n        newProject.description = _description;\r\n        newProject.totalFunding = _totalFunding;\r\n        newProject.manager = msg.sender;\r\n        newProject.projectHash = _projectHash;\r\n        newProject.projectAddress = projectAddress;\r\n        newProject.projectId = projectCount;\r\n\r\n        emit ProjectCreated(projectAddress, projectCount, _title, msg.sender, _projectHash);\r\n        projects[projectCount] = projectAddress;\r\n        projectsByCreator[msg.sender].push(projectCount);\r\n        projectCount++;\r\n    }\r\n\r\n    // Function to generate the project hash based on title and funding\r\n    function generateProjectHash(string memory _title, uint256 _totalFunding) public pure returns (bytes32) {\r\n        return keccak256(abi.encodePacked(_title, _totalFunding));\r\n    }\r\n\r\n    // Function to generate a unique salt based on title, funding, and other factors\r\n    function generateSalt(string memory _title, uint256 _totalFunding) public view returns (bytes32) {\r\n        return keccak256(abi.encodePacked(block.timestamp, msg.sender, _title, _totalFunding));\r\n    }\r\n\r\n    // Function to get the bytecode for the new contract deployment\r\n    function getBytecode(\r\n        string memory _title,\r\n        address _manager,\r\n        uint256 _totalFunding,\r\n        bytes32 _projectHash\r\n    ) private view returns (bytes memory) {\r\n        bytes memory bytecode = type(ResearchProject).creationCode;\r\n        return abi.encodePacked(bytecode, abi.encode(_title, _manager, _totalFunding, _projectHash, address(this)));\r\n    }\r\n\r\n    // Function to get the address of the project contract without deploying it\r\n    function getAddress(\r\n        string memory _title,\r\n        address _manager,\r\n        uint256 _totalFunding,\r\n        bytes32 _projectHash,\r\n        bytes32 salt\r\n    ) public view returns (address) {\r\n        bytes memory bytecode = getBytecode(_title, _manager, _totalFunding, _projectHash);\r\n        bytes32 hash = keccak256(abi.encodePacked(bytes1(0xff), address(this), salt, keccak256(bytecode)));\r\n        return address(uint160(uint(hash)));\r\n    }\r\n\r\n\r\n    // Function to return all project details\r\n    function getAllProjects() external view returns (Project[] memory, Milestone[][] memory) {\r\n        Project[] memory allProjects = new Project[](projectCount);\r\n        Milestone[][] memory allMilestones = new Milestone[][](projectCount);\r\n\r\n        for (uint256 i = 0; i < projectCount; i++) {\r\n            allProjects[i] = projectDetails[i];\r\n            allMilestones[i] = projectDetails[i].milestones;\r\n        }\r\n\r\n        return (allProjects, allMilestones);\r\n    }\r\n\r\n    // Function to return single project details\r\n    function getProjectDetails(uint256 projectId) external view returns (Project memory, Milestone[] memory) {\r\n        require(projectId < projectCount, \"Invalid project ID\");\r\n\r\n        Project storage project = projectDetails[projectId];\r\n        return (project, project.milestones);\r\n    }\r\n\r\n /// commands to get project address and add milestone\r\n\r\n    // projectAddress = await ResearchProject.projects(3)\r\n    // ResearchProject = artifacts.require(\"ResearchProject\")\r\n    // project4 = await ResearchProject.at(projectAddress)\r\n    // await project4.addMilestone(\"First milestone\", \"smart contract milestone\", 1755907200, 100, web3.utils.keccak256(\"First milestone\"))\r\n\r\n    // Function to retrieve projects created by a specific account\r\n    function getProjectsByCreator(address creator) external view returns (Project[] memory) {\r\n        uint256[] memory creatorProjectIds = projectsByCreator[creator];\r\n        Project[] memory creatorProjects = new Project[](creatorProjectIds.length);\r\n\r\n        for (uint256 i = 0; i < creatorProjectIds.length; i++) {\r\n            creatorProjects[i] = projectDetails[creatorProjectIds[i]];\r\n        }\r\n\r\n        return creatorProjects;\r\n    }\r\n    \r\n    function updateProjectMilestones(\r\n        address projectAddr,\r\n        string memory _title,\r\n        string memory _description,\r\n        uint256 _deadline,\r\n        uint256 _reward,\r\n        bytes32 _contentHash\r\n        ) external {\r\n            require(_reward > 220, \"Reward must be greater than 220\");\r\n            for (uint256 i = 0; i < projectCount; i++) {\r\n                if (projectDetails[i].projectAddress == projectAddr) {\r\n                    projectDetails[i].milestones.push(Milestone({\r\n                        title: _title,\r\n                        description: _description,\r\n                        deadline: _deadline,\r\n                        reward: _reward,\r\n                        isCompleted: false,\r\n                        completedBy: address(0),\r\n                        timestamp: 0,\r\n                        contentHash: _contentHash\r\n                    }));\r\n                    break;\r\n                }\r\n            }\r\n    }\r\n\r\n    function getProjectAddress(uint256 projectId) external view returns (address) {\r\n    return projects[projectId];\r\n}\r\n\r\n    \r\n}\r\n",
  "sourcePath": "C:\\Users\\user\\Documents\\Web\\De-Researcher\\deresearch-frontend\\app\\contracts\\ResearchProjectFactory.sol",
  "compiler": {
    "name": "solc",
    "version": "0.8.0+commit.c7dfd78e.Emscripten.clang"
  },
  "schemaVersion": "3.4.16",
  "updatedAt": "2025-10-11T08:10:17.725Z",
  "devdoc": {
    "kind": "dev",
    "methods": {},
    "version": 1
  },
  "userdoc": {
    "kind": "user",
    "methods": {
      "getProjectsByCreator(address)": {
        "notice": "commands to get project address and add milestone"
      }
    },
    "version": 1
  }
}