{
  "contractName": "ResearchProject",
  "abi": [
    {
      "inputs": [
        {
          "internalType": "string",
          "name": "_title",
          "type": "string"
        },
        {
          "internalType": "address",
          "name": "_manager",
          "type": "address"
        },
        {
          "internalType": "uint256",
          "name": "_totalFunding",
          "type": "uint256"
        },
        {
          "internalType": "bytes32",
          "name": "_projectHash",
          "type": "bytes32"
        },
        {
          "internalType": "address",
          "name": "_projectAddress",
          "type": "address"
        },
        {
          "internalType": "address",
          "name": "_factoryAddress",
          "type": "address"
        }
      ],
      "stateMutability": "nonpayable",
      "type": "constructor"
    },
    {
      "anonymous": false,
      "inputs": [
        {
          "indexed": false,
          "internalType": "uint256",
          "name": "milestoneId",
          "type": "uint256"
        },
        {
          "indexed": false,
          "internalType": "address",
          "name": "recipient",
          "type": "address"
        },
        {
          "indexed": false,
          "internalType": "uint256",
          "name": "amount",
          "type": "uint256"
        }
      ],
      "name": "FundsWithdrawn",
      "type": "event"
    },
    {
      "anonymous": false,
      "inputs": [
        {
          "indexed": false,
          "internalType": "uint256",
          "name": "milestoneId",
          "type": "uint256"
        },
        {
          "indexed": false,
          "internalType": "string",
          "name": "description",
          "type": "string"
        },
        {
          "indexed": false,
          "internalType": "uint256",
          "name": "deadline",
          "type": "uint256"
        },
        {
          "indexed": false,
          "internalType": "uint256",
          "name": "reward",
          "type": "uint256"
        },
        {
          "indexed": false,
          "internalType": "bytes32",
          "name": "contentHash",
          "type": "bytes32"
        }
      ],
      "name": "MilestoneAdded",
      "type": "event"
    },
    {
      "anonymous": false,
      "inputs": [
        {
          "indexed": false,
          "internalType": "uint256",
          "name": "milestoneId",
          "type": "uint256"
        },
        {
          "indexed": false,
          "internalType": "address",
          "name": "completedBy",
          "type": "address"
        },
        {
          "indexed": false,
          "internalType": "uint256",
          "name": "timestamp",
          "type": "uint256"
        }
      ],
      "name": "MilestoneCompleted",
      "type": "event"
    },
    {
      "inputs": [],
      "name": "factoryAddress",
      "outputs": [
        {
          "internalType": "address",
          "name": "",
          "type": "address"
        }
      ],
      "stateMutability": "view",
      "type": "function"
    },
    {
      "inputs": [],
      "name": "isActive",
      "outputs": [
        {
          "internalType": "bool",
          "name": "",
          "type": "bool"
        }
      ],
      "stateMutability": "view",
      "type": "function"
    },
    {
      "inputs": [],
      "name": "manager",
      "outputs": [
        {
          "internalType": "address",
          "name": "",
          "type": "address"
        }
      ],
      "stateMutability": "view",
      "type": "function"
    },
    {
      "inputs": [
        {
          "internalType": "uint256",
          "name": "",
          "type": "uint256"
        }
      ],
      "name": "milestones",
      "outputs": [
        {
          "internalType": "string",
          "name": "title",
          "type": "string"
        },
        {
          "internalType": "string",
          "name": "description",
          "type": "string"
        },
        {
          "internalType": "uint256",
          "name": "deadline",
          "type": "uint256"
        },
        {
          "internalType": "uint256",
          "name": "reward",
          "type": "uint256"
        },
        {
          "internalType": "bool",
          "name": "isCompleted",
          "type": "bool"
        },
        {
          "internalType": "address",
          "name": "completedBy",
          "type": "address"
        },
        {
          "internalType": "uint256",
          "name": "timestamp",
          "type": "uint256"
        },
        {
          "internalType": "bytes32",
          "name": "contentHash",
          "type": "bytes32"
        }
      ],
      "stateMutability": "view",
      "type": "function"
    },
    {
      "inputs": [],
      "name": "numMilestones",
      "outputs": [
        {
          "internalType": "uint256",
          "name": "",
          "type": "uint256"
        }
      ],
      "stateMutability": "view",
      "type": "function"
    },
    {
      "inputs": [],
      "name": "projectAddress",
      "outputs": [
        {
          "internalType": "address",
          "name": "",
          "type": "address"
        }
      ],
      "stateMutability": "view",
      "type": "function"
    },
    {
      "inputs": [],
      "name": "projectHash",
      "outputs": [
        {
          "internalType": "bytes32",
          "name": "",
          "type": "bytes32"
        }
      ],
      "stateMutability": "view",
      "type": "function"
    },
    {
      "inputs": [],
      "name": "title",
      "outputs": [
        {
          "internalType": "string",
          "name": "",
          "type": "string"
        }
      ],
      "stateMutability": "view",
      "type": "function"
    },
    {
      "inputs": [],
      "name": "totalFunding",
      "outputs": [
        {
          "internalType": "uint256",
          "name": "",
          "type": "uint256"
        }
      ],
      "stateMutability": "view",
      "type": "function"
    },
    {
      "stateMutability": "payable",
      "type": "receive"
    },
    {
      "inputs": [
        {
          "internalType": "string",
          "name": "_title",
          "type": "string"
        },
        {
          "internalType": "string",
          "name": "_description",
          "type": "string"
        },
        {
          "internalType": "uint256",
          "name": "_deadline",
          "type": "uint256"
        },
        {
          "internalType": "uint256",
          "name": "_reward",
          "type": "uint256"
        },
        {
          "internalType": "bytes32",
          "name": "_contentHash",
          "type": "bytes32"
        }
      ],
      "name": "addMilestone",
      "outputs": [],
      "stateMutability": "nonpayable",
      "type": "function"
    },
    {
      "inputs": [],
      "name": "getAllMilestones",
      "outputs": [
        {
          "components": [
            {
              "internalType": "string",
              "name": "title",
              "type": "string"
            },
            {
              "internalType": "string",
              "name": "description",
              "type": "string"
            },
            {
              "internalType": "uint256",
              "name": "deadline",
              "type": "uint256"
            },
            {
              "internalType": "uint256",
              "name": "reward",
              "type": "uint256"
            },
            {
              "internalType": "bool",
              "name": "isCompleted",
              "type": "bool"
            },
            {
              "internalType": "address",
              "name": "completedBy",
              "type": "address"
            },
            {
              "internalType": "uint256",
              "name": "timestamp",
              "type": "uint256"
            },
            {
              "internalType": "bytes32",
              "name": "contentHash",
              "type": "bytes32"
            }
          ],
          "internalType": "struct ResearchProject.Milestone[]",
          "name": "",
          "type": "tuple[]"
        }
      ],
      "stateMutability": "view",
      "type": "function"
    },
    {
      "inputs": [
        {
          "internalType": "uint256",
          "name": "milestoneId",
          "type": "uint256"
        },
        {
          "internalType": "bytes32",
          "name": "_contentHash",
          "type": "bytes32"
        }
      ],
      "name": "completeMilestone",
      "outputs": [],
      "stateMutability": "nonpayable",
      "type": "function"
    },
    {
      "inputs": [],
      "name": "fundProject",
      "outputs": [],
      "stateMutability": "payable",
      "type": "function"
    }
  ],
  "bytecode": "0x60806040523480156200001157600080fd5b50604051620021c9380380620021c98339818101604052810190620000379190620002af565b85600090805190602001906200004f92919062000148565b5084600160006101000a81548173ffffffffffffffffffffffffffffffffffffffff021916908373ffffffffffffffffffffffffffffffffffffffff160217905550836002819055508260058190555081600660006101000a81548173ffffffffffffffffffffffffffffffffffffffff021916908373ffffffffffffffffffffffffffffffffffffffff1602179055506001600460006101000a81548160ff02191690831515021790555080600860006101000a81548173ffffffffffffffffffffffffffffffffffffffff021916908373ffffffffffffffffffffffffffffffffffffffff16021790555050505050505062000525565b828054620001569062000443565b90600052602060002090601f0160209004810192826200017a5760008555620001c6565b82601f106200019557805160ff1916838001178555620001c6565b82800160010185558215620001c6579182015b82811115620001c5578251825591602001919060010190620001a8565b5b509050620001d59190620001d9565b5090565b5b80821115620001f4576000816000905550600101620001da565b5090565b60006200020f620002098462000392565b6200035e565b9050828152602081018484840111156200022857600080fd5b620002358482856200040d565b509392505050565b6000815190506200024e81620004d7565b92915050565b6000815190506200026581620004f1565b92915050565b600082601f8301126200027d57600080fd5b81516200028f848260208601620001f8565b91505092915050565b600081519050620002a9816200050b565b92915050565b60008060008060008060c08789031215620002c957600080fd5b600087015167ffffffffffffffff811115620002e457600080fd5b620002f289828a016200026b565b96505060206200030589828a016200023d565b95505060406200031889828a0162000298565b94505060606200032b89828a0162000254565b93505060806200033e89828a016200023d565b92505060a06200035189828a016200023d565b9150509295509295509295565b6000604051905081810181811067ffffffffffffffff82111715620003885762000387620004a8565b5b8060405250919050565b600067ffffffffffffffff821115620003b057620003af620004a8565b5b601f19601f8301169050602081019050919050565b6000620003d282620003e3565b9050919050565b6000819050919050565b600073ffffffffffffffffffffffffffffffffffffffff82169050919050565b6000819050919050565b60005b838110156200042d57808201518184015260208101905062000410565b838111156200043d576000848401525b50505050565b600060028204905060018216806200045c57607f821691505b6020821081141562000473576200047262000479565b5b50919050565b7f4e487b7100000000000000000000000000000000000000000000000000000000600052602260045260246000fd5b7f4e487b7100000000000000000000000000000000000000000000000000000000600052604160045260246000fd5b620004e281620003c5565b8114620004ee57600080fd5b50565b620004fc81620003d9565b81146200050857600080fd5b50565b620005168162000403565b81146200052257600080fd5b50565b611c9480620005356000396000f3fe6080604052600436106100c65760003560e01c8063966dae0e1161007f578063d63dc66111610059578063d63dc66114610253578063e89e4ed61461025d578063f1bc2d34146102a1578063fe47a8a7146102ca576100cd565b8063966dae0e146101d4578063ae1fb92f146101ff578063cedece7414610228576100cd565b806322f3e2d4146100d25780633cf96af1146100fd578063481c6a75146101285780634a79d50c146101535780635c43dd991461017e5780636c5fc62d146101a9576100cd565b366100cd57005b600080fd5b3480156100de57600080fd5b506100e76102f5565b6040516100f4919061168b565b60405180910390f35b34801561010957600080fd5b50610112610308565b60405161011f919061164e565b60405180910390f35b34801561013457600080fd5b5061013d61032e565b60405161014a919061164e565b60405180910390f35b34801561015f57600080fd5b50610168610354565b60405161017591906116c1565b60405180910390f35b34801561018a57600080fd5b506101936103e2565b6040516101a09190611669565b60405180910390f35b3480156101b557600080fd5b506101be6106ac565b6040516101cb91906116a6565b60405180910390f35b3480156101e057600080fd5b506101e96106b2565b6040516101f6919061164e565b60405180910390f35b34801561020b57600080fd5b5061022660048036038101906102219190611113565b6106d8565b005b34801561023457600080fd5b5061023d6109cf565b60405161024a91906118af565b60405180910390f35b61025b6109d5565b005b34801561026957600080fd5b50610284600480360381019061027f91906110ea565b6109f0565b6040516102989897969594939291906116e3565b60405180910390f35b3480156102ad57600080fd5b506102c860048036038101906102c39190611043565b610b75565b005b3480156102d657600080fd5b506102df610ea8565b6040516102ec91906118af565b60405180910390f35b600460009054906101000a900460ff1681565b600660009054906101000a900473ffffffffffffffffffffffffffffffffffffffff1681565b600160009054906101000a900473ffffffffffffffffffffffffffffffffffffffff1681565b6000805461036190611b17565b80601f016020809104026020016040519081016040528092919081815260200182805461038d90611b17565b80156103da5780601f106103af576101008083540402835291602001916103da565b820191906000526020600020905b8154815290600101906020018083116103bd57829003601f168201915b505050505081565b6060600060035467ffffffffffffffff811115610428577f4e487b7100000000000000000000000000000000000000000000000000000000600052604160045260246000fd5b60405190808252806020026020018201604052801561046157816020015b61044e610eae565b8152602001906001900390816104465790505b50905060005b6003548110156106a45760076000828152602001908152602001600020604051806101000160405290816000820180546104a090611b17565b80601f01602080910402602001604051908101604052809291908181526020018280546104cc90611b17565b80156105195780601f106104ee57610100808354040283529160200191610519565b820191906000526020600020905b8154815290600101906020018083116104fc57829003601f168201915b5050505050815260200160018201805461053290611b17565b80601f016020809104026020016040519081016040528092919081815260200182805461055e90611b17565b80156105ab5780601f10610580576101008083540402835291602001916105ab565b820191906000526020600020905b81548152906001019060200180831161058e57829003601f168201915b5050505050815260200160028201548152602001600382015481526020016004820160009054906101000a900460ff161515151581526020016004820160019054906101000a900473ffffffffffffffffffffffffffffffffffffffff1673ffffffffffffffffffffffffffffffffffffffff1673ffffffffffffffffffffffffffffffffffffffff16815260200160058201548152602001600682015481525050828281518110610686577f4e487b7100000000000000000000000000000000000000000000000000000000600052603260045260246000fd5b6020026020010181905250808061069c90611b49565b915050610467565b508091505090565b60055481565b600860009054906101000a900473ffffffffffffffffffffffffffffffffffffffff1681565b8160006007600083815260200190815260200160002060010180546106fc90611b17565b9050141561073f576040517f08c379a0000000000000000000000000000000000000000000000000000000008152600401610736906117af565b60405180910390fd5b6000600760008581526020019081526020016000209050806002015442111561079d576040517f08c379a00000000000000000000000000000000000000000000000000000000081526004016107949061180f565b60405180910390fd5b8060040160009054906101000a900460ff16156107ef576040517f08c379a00000000000000000000000000000000000000000000000000000000081526004016107e69061184f565b60405180910390fd5b82816006015414610835576040517f08c379a000000000000000000000000000000000000000000000000000000000815260040161082c9061182f565b60405180910390fd5b60018160040160006101000a81548160ff021916908315150217905550338160040160016101000a81548173ffffffffffffffffffffffffffffffffffffffff021916908373ffffffffffffffffffffffffffffffffffffffff1602179055504281600501819055507f785f24b6a98eafa7fd61a09cf31775b7bbc039cc966c9c6fad18743e13a9e1ea8433426040516108d1939291906118ca565b60405180910390a160003373ffffffffffffffffffffffffffffffffffffffff16826003015460405161090390611639565b60006040518083038185875af1925050503d8060008114610940576040519150601f19603f3d011682016040523d82523d6000602084013e610945565b606091505b5050905080610989576040517f08c379a00000000000000000000000000000000000000000000000000000000081526004016109809061178f565b60405180910390fd5b7ff440aec6b52895984d061d622e6edeba6210f7c3e059be920663140c084560d7853384600301546040516109c0939291906118ca565b60405180910390a15050505050565b60035481565b34600260008282546109e79190611a2d565b92505081905550565b6007602052806000526040600020600091509050806000018054610a1390611b17565b80601f0160208091040260200160405190810160405280929190818152602001828054610a3f90611b17565b8015610a8c5780601f10610a6157610100808354040283529160200191610a8c565b820191906000526020600020905b815481529060010190602001808311610a6f57829003601f168201915b505050505090806001018054610aa190611b17565b80601f0160208091040260200160405190810160405280929190818152602001828054610acd90611b17565b8015610b1a5780601f10610aef57610100808354040283529160200191610b1a565b820191906000526020600020905b815481529060010190602001808311610afd57829003601f168201915b5050505050908060020154908060030154908060040160009054906101000a900460ff16908060040160019054906101000a900473ffffffffffffffffffffffffffffffffffffffff16908060050154908060060154905088565b600160009054906101000a900473ffffffffffffffffffffffffffffffffffffffff1673ffffffffffffffffffffffffffffffffffffffff163373ffffffffffffffffffffffffffffffffffffffff1614610c05576040517f08c379a0000000000000000000000000000000000000000000000000000000008152600401610bfc9061176f565b60405180910390fd5b6000855111610c49576040517f08c379a0000000000000000000000000000000000000000000000000000000008152600401610c40906117ef565b60405180910390fd5b6000845111610c8d576040517f08c379a0000000000000000000000000000000000000000000000000000000008152600401610c84906117cf565b60405180910390fd5b428311610ccf576040517f08c379a0000000000000000000000000000000000000000000000000000000008152600401610cc69061188f565b60405180910390fd5b60008211610d12576040517f08c379a0000000000000000000000000000000000000000000000000000000008152600401610d099061186f565b60405180910390fd5b604051806101000160405280868152602001858152602001848152602001838152602001600015158152602001600073ffffffffffffffffffffffffffffffffffffffff16815260200160008152602001828152506007600060035481526020019081526020016000206000820151816000019080519060200190610d98929190610f0e565b506020820151816001019080519060200190610db5929190610f0e565b50604082015181600201556060820151816003015560808201518160040160006101000a81548160ff02191690831515021790555060a08201518160040160016101000a81548173ffffffffffffffffffffffffffffffffffffffff021916908373ffffffffffffffffffffffffffffffffffffffff16021790555060c0820151816005015560e082015181600601559050507fedac9c81c000b2e5569a608a0dfe5a240e99555ef7d2e6b24193583ae48c8e0a60035485858585604051610e81959493929190611901565b60405180910390a160036000815480929190610e9c90611b49565b91905055505050505050565b60025481565b60405180610100016040528060608152602001606081526020016000815260200160008152602001600015158152602001600073ffffffffffffffffffffffffffffffffffffffff16815260200160008152602001600080191681525090565b828054610f1a90611b17565b90600052602060002090601f016020900481019282610f3c5760008555610f83565b82601f10610f5557805160ff1916838001178555610f83565b82800160010185558215610f83579182015b82811115610f82578251825591602001919060010190610f67565b5b509050610f909190610f94565b5090565b5b80821115610fad576000816000905550600101610f95565b5090565b6000610fc4610fbf8461198c565b61195b565b905082815260208101848484011115610fdc57600080fd5b610fe7848285611ad5565b509392505050565b600081359050610ffe81611c30565b92915050565b600082601f83011261101557600080fd5b8135611025848260208601610fb1565b91505092915050565b60008135905061103d81611c47565b92915050565b600080600080600060a0868803121561105b57600080fd5b600086013567ffffffffffffffff81111561107557600080fd5b61108188828901611004565b955050602086013567ffffffffffffffff81111561109e57600080fd5b6110aa88828901611004565b94505060406110bb8882890161102e565b93505060606110cc8882890161102e565b92505060806110dd88828901610fef565b9150509295509295909350565b6000602082840312156110fc57600080fd5b600061110a8482850161102e565b91505092915050565b6000806040838503121561112657600080fd5b60006111348582860161102e565b925050602061114585828601610fef565b9150509250929050565b600061115b8383611564565b905092915050565b61116c81611a83565b82525050565b61117b81611a83565b82525050565b600061118c826119cc565b61119681856119ef565b9350836020820285016111a8856119bc565b8060005b858110156111e457848403895281516111c5858261114f565b94506111d0836119e2565b925060208a019950506001810190506111ac565b50829750879550505050505092915050565b6111ff81611a95565b82525050565b61120e81611a95565b82525050565b61121d81611aa1565b82525050565b61122c81611aa1565b82525050565b600061123d826119d7565b6112478185611a0b565b9350611257818560208601611ae4565b61126081611c1f565b840191505092915050565b6000611276826119d7565b6112808185611a1c565b9350611290818560208601611ae4565b61129981611c1f565b840191505092915050565b60006112b1602c83611a1c565b91507f4f6e6c792070726f6a656374206d616e616765722063616e20706572666f726d60008301527f207468697320616374696f6e00000000000000000000000000000000000000006020830152604082019050919050565b6000611317600f83611a1c565b91507f5472616e73666572206661696c656400000000000000000000000000000000006000830152602082019050919050565b6000611357601883611a1c565b91507f4d696c6573746f6e6520646f6573206e6f7420657869737400000000000000006000830152602082019050919050565b6000611397601b83611a1c565b91507f4465736372697074696f6e2063616e6e6f7420626520656d70747900000000006000830152602082019050919050565b60006113d7601583611a1c565b91507f5469746c652063616e6e6f7420626520656d70747900000000000000000000006000830152602082019050919050565b6000611417601d83611a1c565b91507f4d696c6573746f6e6520646561646c696e6520686173207061737365640000006000830152602082019050919050565b6000611457601b83611a1c565b91507f436f6e74656e74206861736820646f6573206e6f74206d6174636800000000006000830152602082019050919050565b6000611497601b83611a1c565b91507f4d696c6573746f6e6520616c726561647920636f6d706c6574656400000000006000830152602082019050919050565b60006114d7602083611a1c565b91507f526577617264206d7573742062652067726561746572207468616e207a65726f6000830152602082019050919050565b6000611517600083611a00565b9150600082019050919050565b6000611531601e83611a1c565b91507f446561646c696e65206d75737420626520696e207468652066757475726500006000830152602082019050919050565b60006101008301600083015184820360008601526115828282611232565b9150506020830151848203602086015261159c8282611232565b91505060408301516115b1604086018261161b565b5060608301516115c4606086018261161b565b5060808301516115d760808601826111f6565b5060a08301516115ea60a0860182611163565b5060c08301516115fd60c086018261161b565b5060e083015161161060e0860182611214565b508091505092915050565b61162481611acb565b82525050565b61163381611acb565b82525050565b60006116448261150a565b9150819050919050565b60006020820190506116636000830184611172565b92915050565b600060208201905081810360008301526116838184611181565b905092915050565b60006020820190506116a06000830184611205565b92915050565b60006020820190506116bb6000830184611223565b92915050565b600060208201905081810360008301526116db818461126b565b905092915050565b60006101008201905081810360008301526116fe818b61126b565b90508181036020830152611712818a61126b565b9050611721604083018961162a565b61172e606083018861162a565b61173b6080830187611205565b61174860a0830186611172565b61175560c083018561162a565b61176260e0830184611223565b9998505050505050505050565b60006020820190508181036000830152611788816112a4565b9050919050565b600060208201905081810360008301526117a88161130a565b9050919050565b600060208201905081810360008301526117c88161134a565b9050919050565b600060208201905081810360008301526117e88161138a565b9050919050565b60006020820190508181036000830152611808816113ca565b9050919050565b600060208201905081810360008301526118288161140a565b9050919050565b600060208201905081810360008301526118488161144a565b9050919050565b600060208201905081810360008301526118688161148a565b9050919050565b60006020820190508181036000830152611888816114ca565b9050919050565b600060208201905081810360008301526118a881611524565b9050919050565b60006020820190506118c4600083018461162a565b92915050565b60006060820190506118df600083018661162a565b6118ec6020830185611172565b6118f9604083018461162a565b949350505050565b600060a082019050611916600083018861162a565b8181036020830152611928818761126b565b9050611937604083018661162a565b611944606083018561162a565b6119516080830184611223565b9695505050505050565b6000604051905081810181811067ffffffffffffffff8211171561198257611981611bf0565b5b8060405250919050565b600067ffffffffffffffff8211156119a7576119a6611bf0565b5b601f19601f8301169050602081019050919050565b6000819050602082019050919050565b600081519050919050565b600081519050919050565b6000602082019050919050565b600082825260208201905092915050565b600081905092915050565b600082825260208201905092915050565b600082825260208201905092915050565b6000611a3882611acb565b9150611a4383611acb565b9250827fffffffffffffffffffffffffffffffffffffffffffffffffffffffffffffffff03821115611a7857611a77611b92565b5b828201905092915050565b6000611a8e82611aab565b9050919050565b60008115159050919050565b6000819050919050565b600073ffffffffffffffffffffffffffffffffffffffff82169050919050565b6000819050919050565b82818337600083830152505050565b60005b83811015611b02578082015181840152602081019050611ae7565b83811115611b11576000848401525b50505050565b60006002820490506001821680611b2f57607f821691505b60208210811415611b4357611b42611bc1565b5b50919050565b6000611b5482611acb565b91507fffffffffffffffffffffffffffffffffffffffffffffffffffffffffffffffff821415611b8757611b86611b92565b5b600182019050919050565b7f4e487b7100000000000000000000000000000000000000000000000000000000600052601160045260246000fd5b7f4e487b7100000000000000000000000000000000000000000000000000000000600052602260045260246000fd5b7f4e487b7100000000000000000000000000000000000000000000000000000000600052604160045260246000fd5b6000601f19601f8301169050919050565b611c3981611aa1565b8114611c4457600080fd5b50565b611c5081611acb565b8114611c5b57600080fd5b5056fea2646970667358221220acc137adc90a5f9cd52e3e2deed648fdca4e026c0353b6ca1392cfcf21876d0464736f6c63430008000033",
  "immutableReferences": {},
  "source": "// SPDX-License-Identifier: MIT\npragma solidity ^0.8.0;\n\n\n interface IResearchProjectFactory {\n    function updateProjectMilestones(\n        address projectAddr,\n        string memory _title,\n        string memory _description,\n        uint256 _deadline,\n        uint256 _reward,\n        bytes32 _contentHash\n    ) external;\n}\n\ncontract ResearchProject {\n    \n    struct Milestone {\n        string title;\n        string description;\n        uint256 deadline;\n        uint256 reward;\n        bool isCompleted;\n        address completedBy;\n        uint256 timestamp;\n        bytes32 contentHash;\n    }\n    \n    string public title;\n    address public manager;\n    uint256 public totalFunding;\n    uint256 public numMilestones;\n    bool public isActive;\n    bytes32 public projectHash;\n    address public projectAddress;\n    mapping(uint256 => Milestone) public milestones;\n    address public factoryAddress;\n\n\n    event MilestoneCompleted(uint256 milestoneId, address completedBy, uint256 timestamp);\n    event FundsWithdrawn(uint256 milestoneId, address recipient, uint256 amount);\n    event MilestoneAdded(uint256 milestoneId, string description, uint256 deadline, uint256 reward, bytes32 contentHash);\n\n\n    modifier onlyManager() {\n        require(msg.sender == manager, \"Only project manager can perform this action\");\n        _;\n    }\n\n    modifier milestoneExists(uint256 milestoneId) {\n        require(bytes(milestones[milestoneId].description).length != 0, \"Milestone does not exist\");\n        _;\n    }\n\n    constructor(string memory _title, address _manager, uint256 _totalFunding, bytes32 _projectHash, address _projectAddress, address _factoryAddress) {\n        \n        title = _title;\n        manager = _manager;\n        totalFunding = _totalFunding;\n        projectHash = _projectHash;\n        projectAddress = _projectAddress;\n        isActive = true;\n        factoryAddress = _factoryAddress;\n    }\n\n    function addMilestone(string memory _title, string memory _description, uint256 _deadline, uint256 _reward, bytes32 _contentHash) public onlyManager {\n        require(bytes(_title).length > 0, \"Title cannot be empty\");\n        require(bytes(_description).length > 0, \"Description cannot be empty\");\n        require(_deadline > block.timestamp, \"Deadline must be in the future\");\n        require(_reward > 0, \"Reward must be greater than zero\");\n        milestones[numMilestones] = Milestone({\n            title: _title,\n            description: _description,\n            deadline: _deadline,\n            reward: _reward,\n            isCompleted: false,\n            completedBy: address(0),\n            timestamp: 0,\n            contentHash: _contentHash\n        });\n        // require(_reward > 200, \"Reward must be ------------greater than 200\");\n        emit MilestoneAdded(numMilestones, _description, _deadline, _reward, _contentHash);\n        // require(_reward > 200, \"Reward must be greater than 200\");\n        // require(factoryAddress != address(0), \"Factory address cannot be zero\");\n        //  // Notify the factory\n        // IResearchProjectFactory factory = IResearchProjectFactory(factoryAddress);\n        // factory.updateProjectMilestones(projectAddress, _title, _description, _deadline, _reward, _contentHash);\n        numMilestones++;\n    }\n\n    function getAllMilestones() public view returns (Milestone[] memory) {\n        Milestone[] memory allMilestones = new Milestone[](numMilestones);\n\n        for (uint256 i = 0; i < numMilestones; i++) {\n            allMilestones[i] = milestones[i];\n        }\n        \n        return allMilestones;\n    }\n\n    function completeMilestone(uint256 milestoneId, bytes32 _contentHash) public milestoneExists(milestoneId) {\n        Milestone storage milestone = milestones[milestoneId];\n\n        require(block.timestamp <= milestone.deadline, \"Milestone deadline has passed\");\n        require(!milestone.isCompleted, \"Milestone already completed\");\n        require(milestone.contentHash == _contentHash, \"Content hash does not match\");\n\n        milestone.isCompleted = true;\n        milestone.completedBy = msg.sender;\n        milestone.timestamp = block.timestamp;\n\n        emit MilestoneCompleted(milestoneId, msg.sender, block.timestamp);\n\n        // Transfer reward to the researcher who completed the milestone\n        (bool success, ) = msg.sender.call{value: milestone.reward}(\"\");\n        require(success, \"Transfer failed\");\n\n        emit FundsWithdrawn(milestoneId, msg.sender, milestone.reward);\n    }\n\n    // Function to fund the project\n    function fundProject() public payable {\n        totalFunding += msg.value;\n    }\n\n    // Fallback function to receive Ether\n    receive() external payable {}\n}\n",
  "sourcePath": "C:\\Users\\Chinedu\\Web Work\\Blockchain\\de-researcher\\de-researcher-frontend\\src\\contracts\\ResearchProject.sol",
  "compiler": {
    "name": "solc",
    "version": "0.8.0+commit.c7dfd78e.Emscripten.clang"
  },
  "schemaVersion": "3.4.16",
  "updatedAt": "2025-06-22T00:51:40.114Z",
  "devdoc": {
    "kind": "dev",
    "methods": {},
    "version": 1
  },
  "userdoc": {
    "kind": "user",
    "methods": {},
    "version": 1
  }
}